:100000000C942A000C9447000C9447000C94470071
:100010000C9447000C9447000C9447000C94470044
:100020000C9447000C9447000C9447000C94470034
:100030000C9447000C9447000C9447000C94470024
:100040000C9447000C9447000C9447000C94470014
:100050000C94470011241FBECFE5D8E0DEBFCDBF12
:1000600010E0A0E6B0E0EAE9FAE002C005900D92E7
:10007000A23AB107D9F720E0A2EAB0E001C01D9290
:10008000A53AB207E1F70E9499030C944B050C9432
:1000900000000E94AB0262E083E00E94110260E077
:1000A00083E00E94110261E083E00E94110267E098
:1000B00083E00E94850365E083E00E948503089544
:1000C00044EA50E062E083E00E94150243EA50E017
:1000D00060E083E00E94150242EA50E061E083E0C4
:1000E0000E9415028091A4008130C9F487EA91E64C
:1000F0000197F1F700C0000044EA50E062E083E0BD
:100100000E9415028091A400813009F04AC08091BC
:100110006400811148C081E080936400089580915B
:10012000A3008130C9F487EA91E60197F1F700C096
:10013000000043EA50E060E083E00E9415028091F5
:10014000A300813091F580916300811130C081E07E
:100150008093630080E008958091A2008130C9F40B
:1001600087EA91E60197F1F700C0000042EA50E00B
:1001700061E083E00E9415028091A2008130C9F401
:1001800080916200811117C081E08093620082E05B
:10019000089510926400109263001092620083E050
:1001A000089583E0089583E0089583E0089583E04F
:1001B000089583E0089583E0089581110BC041E024
:1001C00065E083E00E94960340E067E083E00E94E0
:1001D00096030895813059F440E065E083E00E9481
:1001E000960341E067E083E00E9496030895823021
:1001F00021F0853011F0843039F541E065E083E08D
:100200000E94960341E067E083E00E9496032FE995
:1002100086E891E0215080409040E1F700C0000066
:1002200040E065E083E00E94960340E067E083E001
:100230000E9496032FE986E891E02150804090408B
:10024000E1F700C000000895833049F440E065E024
:100250000E94960340E067E083E00E9496030895C1
:1002600090916100981709F47CC08093610090918F
:100270006500923089F128F4992359F09130D1F03A
:1002800070C0943009F44BC0C8F1953009F458C0DF
:1002900068C0813039F018F0823041F062C01092AD
:1002A00065005FC083E0809365005BC084E080935D
:1002B000650057C0813041F018F0823049F051C0DC
:1002C00083E0809365004DC081E08093650049C064
:1002D00085E08093650045C0813041F018F08230A0
:1002E00049F03FC084E0809365003BC085E0809387
:1002F000650037C083E08093650033C0813039F0FA
:1003000018F0823041F02DC0109265002AC081E0C3
:100310008093650026C082E08093650022C0813012
:1003200041F018F0823049F01CC084E080936500F1
:1003300018C082E08093650014C01092650011C05F
:10034000813041F018F0823049F00BC082E0809398
:10035000650007C085E08093650003C081E080935D
:100360006500809165000895CF9390916000981783
:10037000D1F1C82F809360000E948103C11105C094
:1003800086E690E00E9450032EC0C13029F483E736
:1003900090E00E94500327C0C23029F48FE790E01C
:1003A0000E94500320C0C33029F48BE890E00E94E3
:1003B000500319C0C53059F483E790E00E94500300
:1003C0004FE750E060E081E00E9476030CC0C4304B
:1003D00051F486E690E00E9450034FE750E060E061
:1003E00081E00E947603CF9108950E94810385E900
:1003F00090E00E9450032FE382E49FE02150804070
:100400009040E1F700C000000E9460000E943001AF
:10041000809365000E94DD00809165000E94B40118
:10042000F3CF40E00E94A00308950F931F93CF9352
:10043000DF931F92CDB7DEB719824115510579F0D0
:100440008A01AE014F5F5F4F0E94AC0499819130E9
:1004500019F4F801908304C0F801108201C080E013
:100460000F90DF91CF911F910F9108951F93CF931C
:10047000DF931F92CDB7DEB7182F198240E061E0FD
:1004800081E00E94260440E062E081E00E942604B0
:100490008FEC97E00197F1F700C0000041E063E0C6
:1004A00081E00E9426048FEC97E00197F1F700C0ED
:1004B0000000BE016F5F7F4F80E00E9424056981CC
:1004C0006F70812F807F682B698380E00E940A050E
:1004D0008FEC97E00197F1F700C0000040E063E087
:1004E00081E00E9426048FEC97E00197F1F700C0AD
:1004F000000041E063E081E00E9426048FEC97E079
:100500000197F1F700C00000BE016F5F7F4F80E0F0
:100510000E94240520E1129FC001112469816F709F
:10052000682B698380E00E940A058FEC97E00197B1
:10053000F1F700C0000040E063E081E00E94260483
:100540008FEC97E00197F1F700C000000F90DF916A
:10055000CF911F91089541E061E081E00E94A003E6
:1005600041E062E081E00E94A00341E063E081E0BD
:100570000E94A00341E064E080E00E94A00341E00B
:1005800065E080E00E94A00341E066E080E00E9418
:10059000A00341E067E080E00E94A00382E00E94A7
:1005A000360288E20E9436028CE00E94360281E028
:1005B0000E94360208951F93CF93DF931F92CDB709
:1005C000DEB7182F198241E061E081E00E94260425
:1005D00040E062E081E00E9426048FEC97E0019702
:1005E000F1F700C0000041E063E081E00E942604D2
:1005F0008FEC97E00197F1F700C00000BE016F5F3C
:100600007F4F80E00E94240569816F70812F807F79
:10061000682B698380E00E940A058FEC97E00197C0
:10062000F1F700C0000040E063E081E00E94260492
:100630008FEC97E00197F1F700C0000041E063E024
:1006400081E00E9426048FEC97E00197F1F700C04B
:100650000000BE016F5F7F4F80E00E94240520E113
:10066000129FC001112469816F70682B698380E03B
:100670000E940A058FEC97E00197F1F700C0000097
:1006800040E063E081E00E9426048FEC97E0019750
:10069000F1F700C000000F90DF91CF911F910895F6
:1006A0000F931F93CF938C01C0E003C00E94DB0225
:1006B000CF5FF801EC0FF11D80818111F7CFCF9151
:1006C0001F910F910895813039F058F0823031F048
:1006D000833031F061E005C0605C03C0605F01C041
:1006E000605B862F80680E9436020895CF93DF9367
:1006F000EA010E946303CE010E945003DF91CF9173
:10070000089581E00E9436020895CF93DF93C82FA9
:10071000D62F41E00E94A003813029F440E06D2FE4
:100720008C2F0E942604DF91CF9108950E94260409
:1007300008950E9449000E94F50180E090E008952C
:10074000843008F07BC0683008F07AC0423008F08E
:1007500079C0813011F130F08230D1F1833009F469
:1007600052C072C0413061F42AB381E090E002C00F
:10077000880F991F6A95E2F7822B8ABB81E0089562
:100780002AB381E090E002C0880F991F6A95E2F7D2
:10079000809582238ABB81E00895413061F427B3BC
:1007A00081E090E002C0880F991F6A95E2F7822BE2
:1007B00087BB81E0089527B381E090E002C0880FF5
:1007C000991F6A95E2F78095822387BB81E008959F
:1007D000413061F424B381E090E002C0880F991F9A
:1007E0006A95E2F7822B84BB81E0089524B381E00F
:1007F00090E002C0880F991F6A95E2F780958223E6
:1008000084BB81E00895413061F421B381E090E040
:1008100002C0880F991F6A95E2F7822B81BB81E0A5
:10082000089521B381E090E002C0880F991F6A9576
:10083000E2F78095822381BB81E0089582E00895EC
:1008400083E0089584E0089581E00895843008F0FD
:100850007BC0683008F07AC0423008F079C081303F
:1008600011F130F08230D1F1833009F452C072C0FE
:10087000413061F42BB381E090E002C0880F991FF2
:100880006A95E2F7822B8BBB81E008952BB381E060
:1008900090E002C0880F991F6A95E2F78095822345
:1008A0008BBB81E00895413061F428B381E090E092
:1008B00002C0880F991F6A95E2F7822B88BB81E0FE
:1008C000089528B381E090E002C0880F991F6A95CF
:1008D000E2F78095822388BB81E00895413061F47E
:1008E00025B381E090E002C0880F991F6A95E2F776
:1008F000822B85BB81E0089525B381E090E002C0A2
:10090000880F991F6A95E2F78095822385BB81E065
:100910000895413061F422B381E090E002C0880F75
:10092000991F6A95E2F7822B82BB81E0089522B37A
:1009300081E090E002C0880F991F6A95E2F78095E8
:10094000822382BB81E0089582E0089583E00895C8
:1009500080E0089581E00895843008F053C0683045
:1009600008F052C04115510509F450C08130B9F06A
:1009700028F0823029F18330A1F14AC089B390E098
:1009800002C0959587956A95E2F780FF04C081E0E3
:10099000FA0180830895FA01108281E0089586B3F8
:1009A00090E002C0959587956A95E2F780FF04C0B4
:1009B00081E0FA0180830895FA01108281E00895B0
:1009C00083B390E002C0959587956A95E2F780FF22
:1009D00004C081E0FA0180830895FA01108281E069
:1009E000089580B390E002C0959587956A95E2F7E7
:1009F00080FF04C081E0FA0180830895FA0110822B
:100A000081E0089582E0089583E0089580E00895EC
:100A100081E008958430A0F4813049F028F08230DC
:100A200049F0833051F00EC06BBB81E0089568BB84
:100A300081E0089565BB81E0089562BB81E008957F
:100A400082E0089581E008958430F8F4611571051D
:100A5000F1F0813059F028F0823069F0833081F074
:100A600018C089B3FB01808381E0089586B3FB0140
:100A7000808381E0089583B3FB01808381E0089542
:100A800080B3FB01808381E0089582E0089580E0D7
:0A0A9000089581E00895F894FFCF67
:100A9A000603010101037269676874207369676E4E
:100AAA00616C006C656674207369676E616C0077AF
:100ABA00616974207369676E616C006E6F20736977
:100ACA00676E616C004341522049532052454144AC
:020ADA005900C1
:00000001FF
